{
  "contractName": "Ethermon",
  "abi": [
    {
      "constant": true,
      "inputs": [
        {
          "name": "interfaceId",
          "type": "bytes4"
        }
      ],
      "name": "supportsInterface",
      "outputs": [
        {
          "name": "",
          "type": "bool"
        }
      ],
      "payable": false,
      "stateMutability": "view",
      "type": "function"
    },
    {
      "constant": true,
      "inputs": [
        {
          "name": "",
          "type": "uint256"
        }
      ],
      "name": "owners",
      "outputs": [
        {
          "name": "",
          "type": "address"
        }
      ],
      "payable": false,
      "stateMutability": "view",
      "type": "function"
    },
    {
      "constant": true,
      "inputs": [],
      "name": "name",
      "outputs": [
        {
          "name": "",
          "type": "string"
        }
      ],
      "payable": false,
      "stateMutability": "view",
      "type": "function"
    },
    {
      "constant": true,
      "inputs": [
        {
          "name": "tokenId",
          "type": "uint256"
        }
      ],
      "name": "getApproved",
      "outputs": [
        {
          "name": "",
          "type": "address"
        }
      ],
      "payable": false,
      "stateMutability": "view",
      "type": "function"
    },
    {
      "constant": false,
      "inputs": [
        {
          "name": "to",
          "type": "address"
        },
        {
          "name": "tokenId",
          "type": "uint256"
        }
      ],
      "name": "approve",
      "outputs": [],
      "payable": false,
      "stateMutability": "nonpayable",
      "type": "function"
    },
    {
      "constant": true,
      "inputs": [],
      "name": "totalSupply",
      "outputs": [
        {
          "name": "",
          "type": "uint256"
        }
      ],
      "payable": false,
      "stateMutability": "view",
      "type": "function"
    },
    {
      "constant": false,
      "inputs": [
        {
          "name": "from",
          "type": "address"
        },
        {
          "name": "to",
          "type": "address"
        },
        {
          "name": "tokenId",
          "type": "uint256"
        }
      ],
      "name": "transferFrom",
      "outputs": [],
      "payable": false,
      "stateMutability": "nonpayable",
      "type": "function"
    },
    {
      "constant": true,
      "inputs": [
        {
          "name": "owner",
          "type": "address"
        },
        {
          "name": "index",
          "type": "uint256"
        }
      ],
      "name": "tokenOfOwnerByIndex",
      "outputs": [
        {
          "name": "",
          "type": "uint256"
        }
      ],
      "payable": false,
      "stateMutability": "view",
      "type": "function"
    },
    {
      "constant": false,
      "inputs": [
        {
          "name": "from",
          "type": "address"
        },
        {
          "name": "to",
          "type": "address"
        },
        {
          "name": "tokenId",
          "type": "uint256"
        }
      ],
      "name": "safeTransferFrom",
      "outputs": [],
      "payable": false,
      "stateMutability": "nonpayable",
      "type": "function"
    },
    {
      "constant": true,
      "inputs": [
        {
          "name": "index",
          "type": "uint256"
        }
      ],
      "name": "tokenByIndex",
      "outputs": [
        {
          "name": "",
          "type": "uint256"
        }
      ],
      "payable": false,
      "stateMutability": "view",
      "type": "function"
    },
    {
      "constant": true,
      "inputs": [
        {
          "name": "tokenId",
          "type": "uint256"
        }
      ],
      "name": "ownerOf",
      "outputs": [
        {
          "name": "",
          "type": "address"
        }
      ],
      "payable": false,
      "stateMutability": "view",
      "type": "function"
    },
    {
      "constant": true,
      "inputs": [
        {
          "name": "owner",
          "type": "address"
        }
      ],
      "name": "balanceOf",
      "outputs": [
        {
          "name": "",
          "type": "uint256"
        }
      ],
      "payable": false,
      "stateMutability": "view",
      "type": "function"
    },
    {
      "constant": true,
      "inputs": [],
      "name": "symbol",
      "outputs": [
        {
          "name": "",
          "type": "string"
        }
      ],
      "payable": false,
      "stateMutability": "view",
      "type": "function"
    },
    {
      "constant": false,
      "inputs": [
        {
          "name": "to",
          "type": "address"
        },
        {
          "name": "approved",
          "type": "bool"
        }
      ],
      "name": "setApprovalForAll",
      "outputs": [],
      "payable": false,
      "stateMutability": "nonpayable",
      "type": "function"
    },
    {
      "constant": false,
      "inputs": [
        {
          "name": "from",
          "type": "address"
        },
        {
          "name": "to",
          "type": "address"
        },
        {
          "name": "tokenId",
          "type": "uint256"
        },
        {
          "name": "_data",
          "type": "bytes"
        }
      ],
      "name": "safeTransferFrom",
      "outputs": [],
      "payable": false,
      "stateMutability": "nonpayable",
      "type": "function"
    },
    {
      "constant": true,
      "inputs": [
        {
          "name": "",
          "type": "uint256"
        }
      ],
      "name": "monsters",
      "outputs": [
        {
          "name": "name",
          "type": "string"
        },
        {
          "name": "level",
          "type": "uint256"
        }
      ],
      "payable": false,
      "stateMutability": "view",
      "type": "function"
    },
    {
      "constant": true,
      "inputs": [
        {
          "name": "tokenId",
          "type": "uint256"
        }
      ],
      "name": "tokenURI",
      "outputs": [
        {
          "name": "",
          "type": "string"
        }
      ],
      "payable": false,
      "stateMutability": "view",
      "type": "function"
    },
    {
      "constant": true,
      "inputs": [
        {
          "name": "owner",
          "type": "address"
        },
        {
          "name": "operator",
          "type": "address"
        }
      ],
      "name": "isApprovedForAll",
      "outputs": [
        {
          "name": "",
          "type": "bool"
        }
      ],
      "payable": false,
      "stateMutability": "view",
      "type": "function"
    },
    {
      "constant": true,
      "inputs": [],
      "name": "gameOwner",
      "outputs": [
        {
          "name": "",
          "type": "address"
        }
      ],
      "payable": false,
      "stateMutability": "view",
      "type": "function"
    },
    {
      "inputs": [
        {
          "name": "_name",
          "type": "string"
        },
        {
          "name": "_symbol",
          "type": "string"
        }
      ],
      "payable": false,
      "stateMutability": "nonpayable",
      "type": "constructor"
    },
    {
      "anonymous": false,
      "inputs": [
        {
          "indexed": true,
          "name": "from",
          "type": "address"
        },
        {
          "indexed": true,
          "name": "to",
          "type": "address"
        },
        {
          "indexed": true,
          "name": "tokenId",
          "type": "uint256"
        }
      ],
      "name": "Transfer",
      "type": "event"
    },
    {
      "anonymous": false,
      "inputs": [
        {
          "indexed": true,
          "name": "owner",
          "type": "address"
        },
        {
          "indexed": true,
          "name": "approved",
          "type": "address"
        },
        {
          "indexed": true,
          "name": "tokenId",
          "type": "uint256"
        }
      ],
      "name": "Approval",
      "type": "event"
    },
    {
      "anonymous": false,
      "inputs": [
        {
          "indexed": true,
          "name": "owner",
          "type": "address"
        },
        {
          "indexed": true,
          "name": "operator",
          "type": "address"
        },
        {
          "indexed": false,
          "name": "approved",
          "type": "bool"
        }
      ],
      "name": "ApprovalForAll",
      "type": "event"
    },
    {
      "constant": false,
      "inputs": [
        {
          "name": "_name",
          "type": "string"
        },
        {
          "name": "_to",
          "type": "address"
        }
      ],
      "name": "createNewMonster",
      "outputs": [],
      "payable": false,
      "stateMutability": "nonpayable",
      "type": "function"
    },
    {
      "constant": true,
      "inputs": [
        {
          "name": "_addr",
          "type": "address"
        }
      ],
      "name": "checkMonsterIdsByAddress",
      "outputs": [
        {
          "name": "",
          "type": "uint256[]"
        }
      ],
      "payable": false,
      "stateMutability": "view",
      "type": "function"
    },
    {
      "constant": false,
      "inputs": [
        {
          "name": "_attackingMonster",
          "type": "uint256"
        },
        {
          "name": "_defendingMonster",
          "type": "uint256"
        }
      ],
      "name": "battle",
      "outputs": [],
      "payable": false,
      "stateMutability": "nonpayable",
      "type": "function"
    }
  ],
  "bytecode": "0x60806040523480156200001157600080fd5b50604051620027da380380620027da833981018060405260408110156200003757600080fd5b8101908080516401000000008111156200005057600080fd5b828101905060208101848111156200006757600080fd5b81518560018202830111640100000000821117156200008557600080fd5b50509291906020018051640100000000811115620000a257600080fd5b82810190506020810184811115620000b957600080fd5b8151856001820283011164010000000082111715620000d757600080fd5b505092919050505081818181620001206301ffc9a77c01000000000000000000000000000000000000000000000000000000000262000256640100000000026401000000009004565b6200015d6380ac58cd7c01000000000000000000000000000000000000000000000000000000000262000256640100000000026401000000009004565b6200019a63780e9d637c01000000000000000000000000000000000000000000000000000000000262000256640100000000026401000000009004565b8160099080519060200190620001b292919062000314565b5080600a9080519060200190620001cb92919062000314565b5062000209635b5e139f7c01000000000000000000000000000000000000000000000000000000000262000256640100000000026401000000009004565b5050505033600c60006101000a81548173ffffffffffffffffffffffffffffffffffffffff021916908373ffffffffffffffffffffffffffffffffffffffff1602179055505050620003c3565b63ffffffff7c010000000000000000000000000000000000000000000000000000000002817bffffffffffffffffffffffffffffffffffffffffffffffffffffffff191614151515620002a857600080fd5b6001600080837bffffffffffffffffffffffffffffffffffffffffffffffffffffffff19167bffffffffffffffffffffffffffffffffffffffffffffffffffffffff1916815260200190815260200160002060006101000a81548160ff02191690831515021790555050565b828054600181600116156101000203166002900490600052602060002090601f016020900481019282601f106200035757805160ff191683800117855562000388565b8280016001018555821562000388579182015b82811115620003875782518255916020019190600101906200036a565b5b5090506200039791906200039b565b5090565b620003c091905b80821115620003bc576000816000905550600101620003a2565b5090565b90565b61240780620003d36000396000f3fe608060405234801561001057600080fd5b506004361061015f576000357c01000000000000000000000000000000000000000000000000000000009004806342842e0e116100d5578063a22cb46511610099578063a22cb46514610809578063b88d4fde14610859578063c0576b731461095e578063c87b56dd14610a0c578063e985e9c514610ab3578063f6b12f2814610b2f5761015f565b806342842e0e146106105780634f6ccce71461067e5780636352211e146106c057806370a082311461072e57806395d89b41146107865761015f565b8063095ea7b311610127578063095ea7b3146103c1578063115dd1ab1461040f57806318160ddd146104ea57806323b872dd146105085780632a0c5221146105765780632f745c59146105ae5761015f565b806301ffc9a714610164578063025e7c27146101c95780630694db9b1461023757806306fdde03146102d0578063081812fc14610353575b600080fd5b6101af6004803603602081101561017a57600080fd5b8101908080357bffffffffffffffffffffffffffffffffffffffffffffffffffffffff19169060200190929190505050610b79565b604051808215151515815260200191505060405180910390f35b6101f5600480360360208110156101df57600080fd5b8101908080359060200190929190505050610be0565b604051808273ffffffffffffffffffffffffffffffffffffffff1673ffffffffffffffffffffffffffffffffffffffff16815260200191505060405180910390f35b6102796004803603602081101561024d57600080fd5b81019080803573ffffffffffffffffffffffffffffffffffffffff169060200190929190505050610c13565b6040518080602001828103825283818151815260200191508051906020019060200280838360005b838110156102bc5780820151818401526020810190506102a1565b505050509050019250505060405180910390f35b6102d8610d4e565b6040518080602001828103825283818151815260200191508051906020019080838360005b838110156103185780820151818401526020810190506102fd565b50505050905090810190601f1680156103455780820380516001836020036101000a031916815260200191505b509250505060405180910390f35b61037f6004803603602081101561036957600080fd5b8101908080359060200190929190505050610df0565b604051808273ffffffffffffffffffffffffffffffffffffffff1673ffffffffffffffffffffffffffffffffffffffff16815260200191505060405180910390f35b61040d600480360360408110156103d757600080fd5b81019080803573ffffffffffffffffffffffffffffffffffffffff16906020019092919080359060200190929190505050610e41565b005b6104e86004803603604081101561042557600080fd5b810190808035906020019064010000000081111561044257600080fd5b82018360208201111561045457600080fd5b8035906020019184600183028401116401000000008311171561047657600080fd5b91908080601f016020809104026020016040519081016040528093929190818152602001838380828437600081840152601f19601f820116905080830192505050505050509192919290803573ffffffffffffffffffffffffffffffffffffffff169060200190929190505050610f86565b005b6104f26110b4565b6040518082815260200191505060405180910390f35b6105746004803603606081101561051e57600080fd5b81019080803573ffffffffffffffffffffffffffffffffffffffff169060200190929190803573ffffffffffffffffffffffffffffffffffffffff169060200190929190803590602001909291905050506110c1565b005b6105ac6004803603604081101561058c57600080fd5b8101908080359060200190929190803590602001909291905050506110e6565b005b6105fa600480360360408110156105c457600080fd5b81019080803573ffffffffffffffffffffffffffffffffffffffff16906020019092919080359060200190929190505050611221565b6040518082815260200191505060405180910390f35b61067c6004803603606081101561062657600080fd5b81019080803573ffffffffffffffffffffffffffffffffffffffff169060200190929190803573ffffffffffffffffffffffffffffffffffffffff16906020019092919080359060200190929190505050611298565b005b6106aa6004803603602081101561069457600080fd5b81019080803590602001909291905050506112b9565b6040518082815260200191505060405180910390f35b6106ec600480360360208110156106d657600080fd5b81019080803590602001909291905050506112f1565b604051808273ffffffffffffffffffffffffffffffffffffffff1673ffffffffffffffffffffffffffffffffffffffff16815260200191505060405180910390f35b6107706004803603602081101561074457600080fd5b81019080803573ffffffffffffffffffffffffffffffffffffffff16906020019092919050505061136f565b6040518082815260200191505060405180910390f35b61078e6113fa565b6040518080602001828103825283818151815260200191508051906020019080838360005b838110156107ce5780820151818401526020810190506107b3565b50505050905090810190601f1680156107fb5780820380516001836020036101000a031916815260200191505b509250505060405180910390f35b6108576004803603604081101561081f57600080fd5b81019080803573ffffffffffffffffffffffffffffffffffffffff16906020019092919080351515906020019092919050505061149c565b005b61095c6004803603608081101561086f57600080fd5b81019080803573ffffffffffffffffffffffffffffffffffffffff169060200190929190803573ffffffffffffffffffffffffffffffffffffffff16906020019092919080359060200190929190803590602001906401000000008111156108d657600080fd5b8201836020820111156108e857600080fd5b8035906020019184600183028401116401000000008311171561090a57600080fd5b91908080601f016020809104026020016040519081016040528093929190818152602001838380828437600081840152601f19601f8201169050808301925050505050505091929192905050506115d8565b005b61098a6004803603602081101561097457600080fd5b8101908080359060200190929190505050611600565b6040518080602001838152602001828103825284818151815260200191508051906020019080838360005b838110156109d05780820151818401526020810190506109b5565b50505050905090810190601f1680156109fd5780820380516001836020036101000a031916815260200191505b50935050505060405180910390f35b610a3860048036036020811015610a2257600080fd5b81019080803590602001909291905050506116cb565b6040518080602001828103825283818151815260200191508051906020019080838360005b83811015610a78578082015181840152602081019050610a5d565b50505050905090810190601f168015610aa55780820380516001836020036101000a031916815260200191505b509250505060405180910390f35b610b1560048036036040811015610ac957600080fd5b81019080803573ffffffffffffffffffffffffffffffffffffffff169060200190929190803573ffffffffffffffffffffffffffffffffffffffff169060200190929190505050611794565b604051808215151515815260200191505060405180910390f35b610b37611828565b604051808273ffffffffffffffffffffffffffffffffffffffff1673ffffffffffffffffffffffffffffffffffffffff16815260200191505060405180910390f35b6000806000837bffffffffffffffffffffffffffffffffffffffffffffffffffffffff19167bffffffffffffffffffffffffffffffffffffffffffffffffffffffff1916815260200190815260200160002060009054906101000a900460ff169050919050565b600d6020528060005260406000206000915054906101000a900473ffffffffffffffffffffffffffffffffffffffff1681565b6060600073ffffffffffffffffffffffffffffffffffffffff168273ffffffffffffffffffffffffffffffffffffffff1614151515610cba576040517f08c379a000000000000000000000000000000000000000000000000000000000815260040180806020018281038252601a8152602001807f517565727920666f7220746865207a65726f206164647265737300000000000081525060200191505060405180910390fd5b60606005604051908082528060200260200182016040528015610cec5781602001602082028038833980820191505090505b5090506000610cfa8461136f565b9050600080600090505b82811015610d4257610d168682611221565b9150818482815181101515610d2757fe5b90602001906020020181815250508080600101915050610d04565b50829350505050919050565b606060098054600181600116156101000203166002900480601f016020809104026020016040519081016040528092919081815260200182805460018160011615610100020316600290048015610de65780601f10610dbb57610100808354040283529160200191610de6565b820191906000526020600020905b815481529060010190602001808311610dc957829003601f168201915b5050505050905090565b6000610dfb8261184e565b1515610e0657600080fd5b6002600083815260200190815260200160002060009054906101000a900473ffffffffffffffffffffffffffffffffffffffff169050919050565b6000610e4c826112f1565b90508073ffffffffffffffffffffffffffffffffffffffff168373ffffffffffffffffffffffffffffffffffffffff1614151515610e8957600080fd5b8073ffffffffffffffffffffffffffffffffffffffff163373ffffffffffffffffffffffffffffffffffffffff161480610ec95750610ec88133611794565b5b1515610ed457600080fd5b826002600084815260200190815260200160002060006101000a81548173ffffffffffffffffffffffffffffffffffffffff021916908373ffffffffffffffffffffffffffffffffffffffff160217905550818373ffffffffffffffffffffffffffffffffffffffff168273ffffffffffffffffffffffffffffffffffffffff167f8c5be1e5ebec7d5bd14f71427d1e84f3dd0314c0f7b2291e5b200ac8c7c3b92560405160405180910390a4505050565b600c60009054906101000a900473ffffffffffffffffffffffffffffffffffffffff1673ffffffffffffffffffffffffffffffffffffffff163373ffffffffffffffffffffffffffffffffffffffff1614151561102e576040517f08c379a00000000000000000000000000000000000000000000000000000000081526004018080602001828103825260278152602001806123936027913960400191505060405180910390fd5b6000600e805490509050600e604080519081016040528085815260200160018152509080600181540180825580915050906001820390600052602060002090600202016000909192909190915060008201518160000190805190602001906110979291906122c1565b50602082015181600101555050506110af82826118c0565b505050565b6000600780549050905090565b6110cb33826118e1565b15156110d657600080fd5b6110e1838383611976565b505050565b813373ffffffffffffffffffffffffffffffffffffffff16611107826112f1565b73ffffffffffffffffffffffffffffffffffffffff16141515611175576040517f08c379a00000000000000000000000000000000000000000000000000000000081526004018080602001828103825260228152602001806123ba6022913960400191505060405180910390fd5b6000600e8481548110151561118657fe5b906000526020600020906002020190506000600e848154811015156111a757fe5b90600052602060002090600202019050806001015482600101541015156111f357600282600101600082825401925050819055506001816001016000828254019250508190555061121a565b60018260010160008282540192505081905550600281600101600082825401925050819055505b5050505050565b600061122c8361136f565b8210151561123957600080fd5b600560008473ffffffffffffffffffffffffffffffffffffffff1673ffffffffffffffffffffffffffffffffffffffff1681526020019081526020016000208281548110151561128557fe5b9060005260206000200154905092915050565b6112b483838360206040519081016040528060008152506115d8565b505050565b60006112c36110b4565b821015156112d057600080fd5b6007828154811015156112df57fe5b90600052602060002001549050919050565b6000806001600084815260200190815260200160002060009054906101000a900473ffffffffffffffffffffffffffffffffffffffff169050600073ffffffffffffffffffffffffffffffffffffffff168173ffffffffffffffffffffffffffffffffffffffff161415151561136657600080fd5b80915050919050565b60008073ffffffffffffffffffffffffffffffffffffffff168273ffffffffffffffffffffffffffffffffffffffff16141515156113ac57600080fd5b6113f3600360008473ffffffffffffffffffffffffffffffffffffffff1673ffffffffffffffffffffffffffffffffffffffff16815260200190815260200160002061199a565b9050919050565b6060600a8054600181600116156101000203166002900480601f0160208091040260200160405190810160405280929190818152602001828054600181600116156101000203166002900480156114925780601f1061146757610100808354040283529160200191611492565b820191906000526020600020905b81548152906001019060200180831161147557829003601f168201915b5050505050905090565b3373ffffffffffffffffffffffffffffffffffffffff168273ffffffffffffffffffffffffffffffffffffffff16141515156114d757600080fd5b80600460003373ffffffffffffffffffffffffffffffffffffffff1673ffffffffffffffffffffffffffffffffffffffff16815260200190815260200160002060008473ffffffffffffffffffffffffffffffffffffffff1673ffffffffffffffffffffffffffffffffffffffff16815260200190815260200160002060006101000a81548160ff0219169083151502179055508173ffffffffffffffffffffffffffffffffffffffff163373ffffffffffffffffffffffffffffffffffffffff167f17307eab39ab6107e8899845ad3d59bd9653f200f220920489ca2b5937696c3183604051808215151515815260200191505060405180910390a35050565b6115e38484846110c1565b6115ef848484846119a8565b15156115fa57600080fd5b50505050565b600e8181548110151561160f57fe5b9060005260206000209060020201600091509050806000018054600181600116156101000203166002900480601f0160208091040260200160405190810160405280929190818152602001828054600181600116156101000203166002900480156116bb5780601f10611690576101008083540402835291602001916116bb565b820191906000526020600020905b81548152906001019060200180831161169e57829003601f168201915b5050505050908060010154905082565b60606116d68261184e565b15156116e157600080fd5b600b60008381526020019081526020016000208054600181600116156101000203166002900480601f0160208091040260200160405190810160405280929190818152602001828054600181600116156101000203166002900480156117885780601f1061175d57610100808354040283529160200191611788565b820191906000526020600020905b81548152906001019060200180831161176b57829003601f168201915b50505050509050919050565b6000600460008473ffffffffffffffffffffffffffffffffffffffff1673ffffffffffffffffffffffffffffffffffffffff16815260200190815260200160002060008373ffffffffffffffffffffffffffffffffffffffff1673ffffffffffffffffffffffffffffffffffffffff16815260200190815260200160002060009054906101000a900460ff16905092915050565b600c60009054906101000a900473ffffffffffffffffffffffffffffffffffffffff1681565b6000806001600084815260200190815260200160002060009054906101000a900473ffffffffffffffffffffffffffffffffffffffff169050600073ffffffffffffffffffffffffffffffffffffffff168173ffffffffffffffffffffffffffffffffffffffff161415915050919050565b6118ca8282611bcb565b6118d48282611d15565b6118dd81611ddc565b5050565b6000806118ed836112f1565b90508073ffffffffffffffffffffffffffffffffffffffff168473ffffffffffffffffffffffffffffffffffffffff16148061195c57508373ffffffffffffffffffffffffffffffffffffffff1661194484610df0565b73ffffffffffffffffffffffffffffffffffffffff16145b8061196d575061196c8185611794565b5b91505092915050565b611981838383611e28565b61198b8382611fef565b6119958282611d15565b505050565b600081600001549050919050565b60006119c98473ffffffffffffffffffffffffffffffffffffffff16612193565b15156119d85760019050611bc3565b60008473ffffffffffffffffffffffffffffffffffffffff1663150b7a02338887876040518563ffffffff167c0100000000000000000000000000000000000000000000000000000000028152600401808573ffffffffffffffffffffffffffffffffffffffff1673ffffffffffffffffffffffffffffffffffffffff1681526020018473ffffffffffffffffffffffffffffffffffffffff1673ffffffffffffffffffffffffffffffffffffffff16815260200183815260200180602001828103825283818151815260200191508051906020019080838360005b83811015611acf578082015181840152602081019050611ab4565b50505050905090810190601f168015611afc5780820380516001836020036101000a031916815260200191505b5095505050505050602060405180830381600087803b158015611b1e57600080fd5b505af1158015611b32573d6000803e3d6000fd5b505050506040513d6020811015611b4857600080fd5b8101908080519060200190929190505050905063150b7a027c0100000000000000000000000000000000000000000000000000000000027bffffffffffffffffffffffffffffffffffffffffffffffffffffffff1916817bffffffffffffffffffffffffffffffffffffffffffffffffffffffff1916149150505b949350505050565b600073ffffffffffffffffffffffffffffffffffffffff168273ffffffffffffffffffffffffffffffffffffffff1614151515611c0757600080fd5b611c108161184e565b151515611c1c57600080fd5b816001600083815260200190815260200160002060006101000a81548173ffffffffffffffffffffffffffffffffffffffff021916908373ffffffffffffffffffffffffffffffffffffffff160217905550611cb5600360008473ffffffffffffffffffffffffffffffffffffffff1673ffffffffffffffffffffffffffffffffffffffff1681526020019081526020016000206121a6565b808273ffffffffffffffffffffffffffffffffffffffff16600073ffffffffffffffffffffffffffffffffffffffff167fddf252ad1be2c89b69c2b068fc378daa952ba7f163c4a11628f55a4df523b3ef60405160405180910390a45050565b600560008373ffffffffffffffffffffffffffffffffffffffff1673ffffffffffffffffffffffffffffffffffffffff168152602001908152602001600020805490506006600083815260200190815260200160002081905550600560008373ffffffffffffffffffffffffffffffffffffffff1673ffffffffffffffffffffffffffffffffffffffff1681526020019081526020016000208190806001815401808255809150509060018203906000526020600020016000909192909190915055505050565b6007805490506008600083815260200190815260200160002081905550600781908060018154018082558091505090600182039060005260206000200160009091929091909150555050565b8273ffffffffffffffffffffffffffffffffffffffff16611e48826112f1565b73ffffffffffffffffffffffffffffffffffffffff16141515611e6a57600080fd5b600073ffffffffffffffffffffffffffffffffffffffff168273ffffffffffffffffffffffffffffffffffffffff1614151515611ea657600080fd5b611eaf816121bc565b611ef6600360008573ffffffffffffffffffffffffffffffffffffffff1673ffffffffffffffffffffffffffffffffffffffff16815260200190815260200160002061227c565b611f3d600360008473ffffffffffffffffffffffffffffffffffffffff1673ffffffffffffffffffffffffffffffffffffffff1681526020019081526020016000206121a6565b816001600083815260200190815260200160002060006101000a81548173ffffffffffffffffffffffffffffffffffffffff021916908373ffffffffffffffffffffffffffffffffffffffff160217905550808273ffffffffffffffffffffffffffffffffffffffff168473ffffffffffffffffffffffffffffffffffffffff167fddf252ad1be2c89b69c2b068fc378daa952ba7f163c4a11628f55a4df523b3ef60405160405180910390a4505050565b60006120476001600560008673ffffffffffffffffffffffffffffffffffffffff1673ffffffffffffffffffffffffffffffffffffffff1681526020019081526020016000208054905061229f90919063ffffffff16565b9050600060066000848152602001908152602001600020549050818114151561213a576000600560008673ffffffffffffffffffffffffffffffffffffffff1673ffffffffffffffffffffffffffffffffffffffff168152602001908152602001600020838154811015156120b857fe5b9060005260206000200154905080600560008773ffffffffffffffffffffffffffffffffffffffff1673ffffffffffffffffffffffffffffffffffffffff1681526020019081526020016000208381548110151561211257fe5b9060005260206000200181905550816006600083815260200190815260200160002081905550505b600560008573ffffffffffffffffffffffffffffffffffffffff1673ffffffffffffffffffffffffffffffffffffffff16815260200190815260200160002080548091906001900361218c9190612341565b5050505050565b600080823b905060008111915050919050565b6001816000016000828254019250508190555050565b600073ffffffffffffffffffffffffffffffffffffffff166002600083815260200190815260200160002060009054906101000a900473ffffffffffffffffffffffffffffffffffffffff1673ffffffffffffffffffffffffffffffffffffffff161415156122795760006002600083815260200190815260200160002060006101000a81548173ffffffffffffffffffffffffffffffffffffffff021916908373ffffffffffffffffffffffffffffffffffffffff1602179055505b50565b6122946001826000015461229f90919063ffffffff16565b816000018190555050565b60008282111515156122b057600080fd5b600082840390508091505092915050565b828054600181600116156101000203166002900490600052602060002090601f016020900481019282601f1061230257805160ff1916838001178555612330565b82800160010185558215612330579182015b8281111561232f578251825591602001919060010190612314565b5b50905061233d919061236d565b5090565b81548183558181111561236857818360005260206000209182019101612367919061236d565b5b505050565b61238f91905b8082111561238b576000816000905550600101612373565b5090565b9056fe4f6e6c792067616d65206f776e65722063616e20637265617465206e6577206d6f6e73746572734d757374206265206f776e6572206f66206d6f6e7374657220746f20626174746c65a165627a7a72305820bfd9d71af444fa1ca5cd3dc20600edd279653dad72d0a412b8023168ea446eb90029",
  "source": "// SPDX-License-Identifier: MIT\r\n\r\npragma solidity >0.4.22 <0.9.0;\r\n\r\nimport \"@openzeppelin/contracts/token/ERC721/ERC721Full.sol\";\r\n//import \"https://github.com/athiwatp/openzeppelin-solidity/blob/master/contracts/token/ERC721/ERC721Full.sol\";\r\n//import \"node_modules/openzeppelin-solidity-master/contracts/token/ERC721/ERC721Full.sol\";\r\n\r\ncontract Ethermon is ERC721Full{\r\n    \r\n    constructor(string memory _name, string memory _symbol) \r\n       ERC721Full ( _name ,  _symbol) public {\r\n           gameOwner = msg.sender;\r\n       }  \r\n       \r\n    address public gameOwner;\r\n    \r\n    mapping(uint => address) public owners;\r\n       \r\n    struct Monster {\r\n        string name;\r\n        uint level;\r\n    } \r\n    \r\n    Monster[] public monsters;\r\n\r\n    function createNewMonster(string memory _name, address _to) public {\r\n        require(msg.sender == gameOwner, \"Only game owner can create new monsters\");\r\n        uint id = monsters.length;\r\n        monsters.push(Monster(_name, 1));\r\n        \r\n        _mint(_to, id);\r\n        \r\n    }\r\n\r\n\r\n    //create a array that can store the id of monsters owned by an specific address\r\n    // the said array can be formed through calling a function with for loop of \"tokenOfOwnerByIndex(owner, index)\"\r\n    // the argument of this function would be address, the output is the said array\r\n    \r\n\r\n\r\n    function checkMonsterIdsByAddress (address _addr) public view returns (uint256[] memory ){\r\n        require(_addr != address(0), \"Query for the zero address\");\r\n        \r\n        uint[] memory ownedTokenIds = new uint[](5);\r\n\r\n        uint balance = balanceOf(_addr);\r\n\r\n        uint id;\r\n\r\n        for(uint i=0; i<balance; i++){\r\n\r\n            id = tokenOfOwnerByIndex(_addr, i);\r\n\r\n            ownedTokenIds[i] = id;\r\n        }\r\n        \r\n        return ownedTokenIds;\r\n\r\n    }\r\n\r\n\r\n\r\n    modifier onlyOwnerOf(uint _monsterId) {\r\n    require(ownerOf(_monsterId) == msg.sender, \"Must be owner of monster to battle\");\r\n    _;\r\n    }\r\n    \r\n    function battle(uint _attackingMonster, uint _defendingMonster) public onlyOwnerOf(_attackingMonster) {\r\n        Monster storage attacker = monsters[_attackingMonster];\r\n        Monster storage defender = monsters[_defendingMonster];\r\n \r\n        if (attacker.level >= defender.level) {\r\n            attacker.level += 2;\r\n            defender.level += 1;\r\n        }\r\n        else{\r\n            attacker.level += 1;\r\n            defender.level += 2;\r\n        }\r\n    }\r\n\r\n\r\n\r\n\r\n\r\n\r\n\r\n}\r\n",
  "sourcePath": "C:\\all_code\\blockchain\\poke\\contracts\\Ethermon.sol",
  "compiler": {
    "name": "solc",
    "version": "0.5.2+commit.1df8f40c.Emscripten.clang"
  },
  "schemaVersion": "3.4.4",
  "updatedAt": "2021-12-20T08:16:34.297Z",
  "networkType": "ethereum",
  "devdoc": {
    "methods": {
      "approve(address,uint256)": {
        "details": "Approves another address to transfer the given token ID The zero address indicates there is no approved address. There can only be one approved address per token at a given time. Can only be called by the token owner or an approved operator.",
        "params": {
          "to": "address to be approved for the given token ID",
          "tokenId": "uint256 ID of the token to be approved"
        }
      },
      "balanceOf(address)": {
        "details": "Gets the balance of the specified address",
        "params": {
          "owner": "address to query the balance of"
        },
        "return": "uint256 representing the amount owned by the passed address"
      },
      "getApproved(uint256)": {
        "details": "Gets the approved address for a token ID, or zero if no address set Reverts if the token ID does not exist.",
        "params": {
          "tokenId": "uint256 ID of the token to query the approval of"
        },
        "return": "address currently approved for the given token ID"
      },
      "isApprovedForAll(address,address)": {
        "details": "Tells whether an operator is approved by a given owner",
        "params": {
          "operator": "operator address which you want to query the approval of",
          "owner": "owner address which you want to query the approval of"
        },
        "return": "bool whether the given operator is approved by the given owner"
      },
      "name()": {
        "details": "Gets the token name",
        "return": "string representing the token name"
      },
      "ownerOf(uint256)": {
        "details": "Gets the owner of the specified token ID",
        "params": {
          "tokenId": "uint256 ID of the token to query the owner of"
        },
        "return": "address currently marked as the owner of the given token ID"
      },
      "safeTransferFrom(address,address,uint256)": {
        "details": "Safely transfers the ownership of a given token ID to another address If the target address is a contract, it must implement `onERC721Received`, which is called upon a safe transfer, and return the magic value `bytes4(keccak256(\"onERC721Received(address,address,uint256,bytes)\"))`; otherwise, the transfer is reverted. Requires the msg.sender to be the owner, approved, or operator",
        "params": {
          "from": "current owner of the token",
          "to": "address to receive the ownership of the given token ID",
          "tokenId": "uint256 ID of the token to be transferred"
        }
      },
      "safeTransferFrom(address,address,uint256,bytes)": {
        "details": "Safely transfers the ownership of a given token ID to another address If the target address is a contract, it must implement `onERC721Received`, which is called upon a safe transfer, and return the magic value `bytes4(keccak256(\"onERC721Received(address,address,uint256,bytes)\"))`; otherwise, the transfer is reverted. Requires the msg.sender to be the owner, approved, or operator",
        "params": {
          "_data": "bytes data to send along with a safe transfer check",
          "from": "current owner of the token",
          "to": "address to receive the ownership of the given token ID",
          "tokenId": "uint256 ID of the token to be transferred"
        }
      },
      "setApprovalForAll(address,bool)": {
        "details": "Sets or unsets the approval of a given operator An operator is allowed to transfer all tokens of the sender on their behalf",
        "params": {
          "approved": "representing the status of the approval to be set",
          "to": "operator address to set the approval"
        }
      },
      "supportsInterface(bytes4)": {
        "details": "implement supportsInterface(bytes4) using a lookup table"
      },
      "symbol()": {
        "details": "Gets the token symbol",
        "return": "string representing the token symbol"
      },
      "tokenByIndex(uint256)": {
        "details": "Gets the token ID at a given index of all the tokens in this contract Reverts if the index is greater or equal to the total number of tokens",
        "params": {
          "index": "uint256 representing the index to be accessed of the tokens list"
        },
        "return": "uint256 token ID at the given index of the tokens list"
      },
      "tokenOfOwnerByIndex(address,uint256)": {
        "details": "Gets the token ID at a given index of the tokens list of the requested owner",
        "params": {
          "index": "uint256 representing the index to be accessed of the requested tokens list",
          "owner": "address owning the tokens list to be accessed"
        },
        "return": "uint256 token ID at the given index of the tokens list owned by the requested address"
      },
      "tokenURI(uint256)": {
        "details": "Returns an URI for a given token ID Throws if the token ID does not exist. May return an empty string.",
        "params": {
          "tokenId": "uint256 ID of the token to query"
        }
      },
      "totalSupply()": {
        "details": "Gets the total amount of tokens stored by the contract",
        "return": "uint256 representing the total amount of tokens"
      },
      "transferFrom(address,address,uint256)": {
        "details": "Transfers the ownership of a given token ID to another address Usage of this method is discouraged, use `safeTransferFrom` whenever possible Requires the msg.sender to be the owner, approved, or operator",
        "params": {
          "from": "current owner of the token",
          "to": "address to receive the ownership of the given token ID",
          "tokenId": "uint256 ID of the token to be transferred"
        }
      }
    }
  },
  "userdoc": {
    "methods": {}
  }
}