{
  "contractName": "SimpleStorage",
  "abi": [
    {
      "constant": false,
      "inputs": [
        {
          "name": "x",
          "type": "uint256"
        }
      ],
      "name": "set",
      "outputs": [],
      "payable": false,
      "stateMutability": "nonpayable",
      "type": "function"
    },
    {
      "constant": true,
      "inputs": [],
      "name": "get",
      "outputs": [
        {
          "name": "",
          "type": "uint256"
        }
      ],
      "payable": false,
      "stateMutability": "view",
      "type": "function"
    }
  ],
  "bytecode": "0x608060405234801561001057600080fd5b5060da8061001f6000396000f3fe6080604052348015600f57600080fd5b5060043610604f576000357c01000000000000000000000000000000000000000000000000000000009004806360fe47b11460545780636d4ce63c14607f575b600080fd5b607d60048036036020811015606857600080fd5b8101908080359060200190929190505050609b565b005b608560a5565b6040518082815260200191505060405180910390f35b8060008190555050565b6000805490509056fea165627a7a72305820b47ddb31e91b2e2e11b71c577098cd30d9a51bc7d0254bbcff347a4cbf25b9350029",
  "source": "// SPDX-License-Identifier: MIT\npragma solidity >=0.4.21 <0.7.0;\n\ncontract SimpleStorage {\n  uint storedData;\n\n  function set(uint x) public {\n    storedData = x;\n  }\n\n  function get() public view returns (uint) {\n    return storedData;\n  }\n}\n",
  "sourcePath": "C:\\all_code\\blockchain\\poke\\contracts\\SimpleStorage.sol",
  "compiler": {
    "name": "solc",
    "version": "0.5.2+commit.1df8f40c.Emscripten.clang"
  },
  "schemaVersion": "3.4.4",
  "updatedAt": "2021-12-20T08:16:31.563Z",
  "devdoc": {
    "methods": {}
  },
  "userdoc": {
    "methods": {}
  }
}